{
  "contractName": "Auction",
  "abi": [
    {
      "anonymous": false,
      "inputs": [
        {
          "indexed": false,
          "internalType": "uint256",
          "name": "auction_id",
          "type": "uint256"
        }
      ],
      "name": "listed_auction",
      "type": "event"
    },
    {
      "inputs": [
        {
          "internalType": "uint256",
          "name": "",
          "type": "uint256"
        }
      ],
      "name": "auctions",
      "outputs": [
        {
          "internalType": "string",
          "name": "prod_title",
          "type": "string"
        },
        {
          "internalType": "bool",
          "name": "is_active",
          "type": "bool"
        },
        {
          "internalType": "bool",
          "name": "amount_status",
          "type": "bool"
        },
        {
          "internalType": "uint256",
          "name": "unique_id",
          "type": "uint256"
        },
        {
          "internalType": "uint256",
          "name": "time_of_creation",
          "type": "uint256"
        },
        {
          "internalType": "uint256",
          "name": "time_of_deadline",
          "type": "uint256"
        },
        {
          "internalType": "uint256",
          "name": "starting_bid_rate",
          "type": "uint256"
        },
        {
          "internalType": "uint256",
          "name": "winning_bid_amt",
          "type": "uint256"
        },
        {
          "internalType": "address",
          "name": "auction_owner",
          "type": "address"
        }
      ],
      "stateMutability": "view",
      "type": "function",
      "constant": true
    },
    {
      "inputs": [
        {
          "internalType": "uint256",
          "name": "",
          "type": "uint256"
        },
        {
          "internalType": "uint256",
          "name": "",
          "type": "uint256"
        }
      ],
      "name": "bidders",
      "outputs": [
        {
          "internalType": "address",
          "name": "bid_placer",
          "type": "address"
        },
        {
          "internalType": "uint256",
          "name": "bidded_value",
          "type": "uint256"
        },
        {
          "internalType": "uint256",
          "name": "order",
          "type": "uint256"
        },
        {
          "internalType": "uint256",
          "name": "timestamp",
          "type": "uint256"
        },
        {
          "internalType": "bool",
          "name": "winner",
          "type": "bool"
        }
      ],
      "stateMutability": "view",
      "type": "function",
      "constant": true
    },
    {
      "inputs": [
        {
          "internalType": "string",
          "name": "title",
          "type": "string"
        },
        {
          "internalType": "uint256",
          "name": "days_to_deadline",
          "type": "uint256"
        },
        {
          "internalType": "uint256",
          "name": "starting_bid",
          "type": "uint256"
        }
      ],
      "name": "list_new_auction",
      "outputs": [
        {
          "internalType": "uint256",
          "name": "",
          "type": "uint256"
        }
      ],
      "stateMutability": "nonpayable",
      "type": "function"
    },
    {
      "inputs": [],
      "name": "view_all_auctions",
      "outputs": [
        {
          "components": [
            {
              "internalType": "string",
              "name": "prod_title",
              "type": "string"
            },
            {
              "internalType": "bool",
              "name": "is_active",
              "type": "bool"
            },
            {
              "internalType": "bool",
              "name": "amount_status",
              "type": "bool"
            },
            {
              "internalType": "uint256",
              "name": "unique_id",
              "type": "uint256"
            },
            {
              "internalType": "uint256",
              "name": "time_of_creation",
              "type": "uint256"
            },
            {
              "internalType": "uint256",
              "name": "time_of_deadline",
              "type": "uint256"
            },
            {
              "internalType": "uint256",
              "name": "starting_bid_rate",
              "type": "uint256"
            },
            {
              "internalType": "uint256",
              "name": "winning_bid_amt",
              "type": "uint256"
            },
            {
              "internalType": "address",
              "name": "auction_owner",
              "type": "address"
            }
          ],
          "internalType": "struct Auction.auction[]",
          "name": "",
          "type": "tuple[]"
        }
      ],
      "stateMutability": "view",
      "type": "function",
      "constant": true
    },
    {
      "inputs": [
        {
          "internalType": "uint256",
          "name": "auction_id",
          "type": "uint256"
        },
        {
          "internalType": "uint256",
          "name": "orderval",
          "type": "uint256"
        },
        {
          "internalType": "uint256",
          "name": "bidded_value",
          "type": "uint256"
        }
      ],
      "name": "make_bid",
      "outputs": [
        {
          "components": [
            {
              "internalType": "address",
              "name": "bid_placer",
              "type": "address"
            },
            {
              "internalType": "uint256",
              "name": "bidded_value",
              "type": "uint256"
            },
            {
              "internalType": "uint256",
              "name": "order",
              "type": "uint256"
            },
            {
              "internalType": "uint256",
              "name": "timestamp",
              "type": "uint256"
            },
            {
              "internalType": "bool",
              "name": "winner",
              "type": "bool"
            }
          ],
          "internalType": "struct Auction.bidder[]",
          "name": "",
          "type": "tuple[]"
        }
      ],
      "stateMutability": "nonpayable",
      "type": "function"
    },
    {
      "inputs": [
        {
          "internalType": "uint256",
          "name": "auction_id",
          "type": "uint256"
        }
      ],
      "name": "make_payment",
      "outputs": [
        {
          "internalType": "bool",
          "name": "",
          "type": "bool"
        }
      ],
      "stateMutability": "payable",
      "type": "function",
      "payable": true
    },
    {
      "inputs": [],
      "name": "view_contract_balance",
      "outputs": [
        {
          "internalType": "uint256",
          "name": "",
          "type": "uint256"
        }
      ],
      "stateMutability": "view",
      "type": "function",
      "constant": true
    },
    {
      "inputs": [
        {
          "internalType": "uint256",
          "name": "auction_id",
          "type": "uint256"
        }
      ],
      "name": "withdraw_from_auction",
      "outputs": [],
      "stateMutability": "nonpayable",
      "type": "function"
    },
    {
      "inputs": [
        {
          "internalType": "uint256",
          "name": "auction_id",
          "type": "uint256"
        }
      ],
      "name": "view_all_transactions",
      "outputs": [
        {
          "components": [
            {
              "internalType": "address",
              "name": "bid_placer",
              "type": "address"
            },
            {
              "internalType": "uint256",
              "name": "bidded_value",
              "type": "uint256"
            },
            {
              "internalType": "uint256",
              "name": "order",
              "type": "uint256"
            },
            {
              "internalType": "uint256",
              "name": "timestamp",
              "type": "uint256"
            },
            {
              "internalType": "bool",
              "name": "winner",
              "type": "bool"
            }
          ],
          "internalType": "struct Auction.bidder[]",
          "name": "",
          "type": "tuple[]"
        }
      ],
      "stateMutability": "view",
      "type": "function",
      "constant": true
    }
  ],
  "bytecode": "0x60806040526000805534801561001457600080fd5b50611124806100246000396000f3fe6080604052600436106100865760003560e01c80639b1bce00116100595780639b1bce0014610128578063bdec12301461014a578063d1c112051461016d578063ef1df64c146101c1578063fa86c030146101ee57600080fd5b80631f706ec71461008b57806341625eab146100ad578063571a26a0146100e05780636d66a14314610115575b600080fd5b34801561009757600080fd5b506100ab6100a6366004610bee565b61020e565b005b3480156100b957600080fd5b506100cd6100c8366004610c1d565b610388565b6040519081526020015b60405180910390f35b3480156100ec57600080fd5b506101006100fb366004610bee565b61051d565b6040516100d799989796959493929190610d27565b34801561012157600080fd5b50476100cd565b34801561013457600080fd5b5061013d610615565b6040516100d79190610d84565b61015d610158366004610bee565b610771565b60405190151581526020016100d7565b34801561017957600080fd5b5061018d610188366004610e56565b61094e565b604080516001600160a01b03909616865260208601949094529284019190915260608301521515608082015260a0016100d7565b3480156101cd57600080fd5b506101e16101dc366004610bee565b6109a9565b6040516100d79190610e78565b3480156101fa57600080fd5b506101e1610209366004610ef1565b610a55565b6002818154811061022157610221610f1d565b60009182526020909120600160089092020181015460ff1615151461024557600080fd5b336001600160a01b03166002828154811061026257610262610f1d565b60009182526020909120600760089092020101546001600160a01b03161461028957600080fd5b6002818154811061029c5761029c610f1d565b90600052602060002090600802016004015442116102b957600080fd5b600281815481106102cc576102cc610f1d565b60009182526020909120600160089092020181015460ff610100909104161515146102f657600080fd5b60006002828154811061030b5761030b610f1d565b60009182526020822060066008909202010154604051909250339183156108fc02918491818181858888f1935050505015801561034c573d6000803e3d6000fd5b5060006002838154811061036257610362610f1d565b60009182526020909120600890910201600101805460ff19169115159190911790555050565b600080831161039657600080fd5b600082116103a357600080fd5b60408051610120810182528581526001602082015260009181018290529054606082015242608082015260029060a081016103e18662015180610f49565b6103eb9042610f66565b815260208082018690526000604083018190523360609093019290925283546001810185559382529020815191926008020190819061042a9082611002565b506020820151600182018054604085015161ffff1990911692151561ff001916929092176101009215158302179055606083015160028301556080830151600383015560a0830151600483015560c0830151600583015560e0830151600683015590910151600790910180546001600160a01b0319166001600160a01b039092169190911790556000805490806104c0836110c2565b91905055507f886eae2a0b4b0d0ba690b02a9e3d271910e0f2660e6c8b794ad93d49dad49dd660016000546104f591906110db565b60405190815260200160405180910390a1600160005461051591906110db565b949350505050565b6002818154811061052d57600080fd5b906000526020600020906008020160009150905080600001805461055090610f79565b80601f016020809104026020016040519081016040528092919081815260200182805461057c90610f79565b80156105c95780601f1061059e576101008083540402835291602001916105c9565b820191906000526020600020905b8154815290600101906020018083116105ac57829003601f168201915b505050600184015460028501546003860154600487015460058801546006890154600790990154979860ff8087169961010090970416975093955091939092906001600160a01b031689565b60606002805480602002602001604051908101604052809291908181526020016000905b8282101561076857838290600052602060002090600802016040518061012001604052908160008201805461066d90610f79565b80601f016020809104026020016040519081016040528092919081815260200182805461069990610f79565b80156106e65780601f106106bb576101008083540402835291602001916106e6565b820191906000526020600020905b8154815290600101906020018083116106c957829003601f168201915b505050918352505060018281015460ff808216151560208086019190915261010092839004909116151560408501526002850154606085015260038501546080850152600485015460a0850152600585015460c0850152600685015460e08501526007909401546001600160a01b031692019190915291835292019101610639565b50505050905090565b60006002828154811061078657610786610f1d565b90600052602060002090600802016004015442116107a357600080fd5b600082815260016020526040812060028054919291859081106107c8576107c8610f1d565b60009182526020822084546008909202019250905b835481101561094257818482815481106107f9576107f9610f1d565b9060005260206000209060050201600201540361093057336001600160a01b031684828154811061082c5761082c610f1d565b60009182526020909120600590910201546001600160a01b03161461085057600080fd5b83818154811061086257610862610f1d565b906000526020600020906005020160010154341461087f57600080fd5b83818154811061089157610891610f1d565b600091825260209091206004600590920201015460ff16156108b257600080fd5b8381815481106108c4576108c4610f1d565b6000918252602090912060016005909202018101546006850155838101805461ff001916610100179055845485908390811061090257610902610f1d565b60009182526020909120600590910201600401805460ff191691151591909117905550600195945050505050565b8061093a816110c2565b9150506107dd565b50600095945050505050565b6001602052816000526040600020818154811061096a57600080fd5b6000918252602090912060059091020180546001820154600283015460038401546004909401546001600160a01b039093169550909350919060ff1685565b606060016000838152602001908152602001600020805480602002602001604051908101604052809291908181526020016000905b82821015610a4a5760008481526020908190206040805160a0810182526005860290920180546001600160a01b0316835260018082015484860152600282015492840192909252600381015460608401526004015460ff161515608083015290835290920191016109de565b505050509050919050565b606060028481548110610a6a57610a6a610f1d565b9060005260206000209060080201600401544210610a8757600080fd5b60028481548110610a9a57610a9a610f1d565b60009182526020909120600160089092020181015460ff16151514610abe57600080fd5b6000848152600160208181526040808420815160a08101835233815280840188815242828501908152606083018b8152608084018981528554808a018755868b52888b209551600590910290950180546001600160a01b0319166001600160a01b0390961695909517855592518489015590516002840155516003830155516004909101805460ff1916911515919091179055888552928252825481518184028101840190925280825292939092849290919084015b82821015610be05760008481526020908190206040805160a0810182526005860290920180546001600160a01b0316835260018082015484860152600282015492840192909252600381015460608401526004015460ff16151560808301529083529092019101610b74565b505050509150509392505050565b600060208284031215610c0057600080fd5b5035919050565b634e487b7160e01b600052604160045260246000fd5b600080600060608486031215610c3257600080fd5b833567ffffffffffffffff80821115610c4a57600080fd5b818601915086601f830112610c5e57600080fd5b813581811115610c7057610c70610c07565b604051601f8201601f19908116603f01168101908382118183101715610c9857610c98610c07565b81604052828152896020848701011115610cb157600080fd5b82602086016020830137600060208483010152809750505050505060208401359150604084013590509250925092565b6000815180845260005b81811015610d0757602081850181015186830182015201610ceb565b506000602082860101526020601f19601f83011685010191505092915050565b6000610120808352610d3b8184018d610ce1565b9a15156020840152505096151560408801526060870195909552608086019390935260a085019190915260c084015260e08301526001600160a01b031661010090910152919050565b60006020808301818452808551808352604092508286019150828160051b87010184880160005b83811015610e4857603f1989840301855281516101208151818652610dd282870182610ce1565b91505088820151610de68a87018215159052565b5087820151151585890152606080830151908601526080808301519086015260a0808301519086015260c0808301519086015260e08083015190860152610100918201516001600160a01b031691909401529386019390860190600101610dab565b509098975050505050505050565b60008060408385031215610e6957600080fd5b50508035926020909101359150565b602080825282518282018190526000919060409081850190868401855b82811015610ee457815180516001600160a01b03168552868101518786015285810151868601526060808201519086015260809081015115159085015260a09093019290850190600101610e95565b5091979650505050505050565b600080600060608486031215610f0657600080fd5b505081359360208301359350604090920135919050565b634e487b7160e01b600052603260045260246000fd5b634e487b7160e01b600052601160045260246000fd5b8082028115828204841417610f6057610f60610f33565b92915050565b80820180821115610f6057610f60610f33565b600181811c90821680610f8d57607f821691505b602082108103610fad57634e487b7160e01b600052602260045260246000fd5b50919050565b601f821115610ffd57600081815260208120601f850160051c81016020861015610fda5750805b601f850160051c820191505b81811015610ff957828155600101610fe6565b5050505b505050565b815167ffffffffffffffff81111561101c5761101c610c07565b6110308161102a8454610f79565b84610fb3565b602080601f831160018114611065576000841561104d5750858301515b600019600386901b1c1916600185901b178555610ff9565b600085815260208120601f198616915b8281101561109457888601518255948401946001909101908401611075565b50858210156110b25787850151600019600388901b60f8161c191681555b5050505050600190811b01905550565b6000600182016110d4576110d4610f33565b5060010190565b81810381811115610f6057610f60610f3356fea26469706673582212208b2a118ee66da15934660d04ed7d9e28ca44e6e46a2dfc6b75b0e4e7ef8929ff64736f6c63430008130033",
  "immutableReferences": {},
  "source": "// SPDX-License-Identifier: GPL-3.0\r\n// pragma solidity >= 0.7.0 <0.9.0;\r\npragma solidity ^0.8.19;\r\n\r\ncontract Auction{\r\n\r\n    event listed_auction(uint auction_id);\r\n    \r\n    uint id_counter=0;\r\n\r\n    struct auction{\r\n        string prod_title;\r\n        bool is_active;\r\n        bool amount_status;\r\n        uint unique_id;\r\n        uint time_of_creation;\r\n        uint time_of_deadline; \r\n        uint starting_bid_rate;\r\n        uint winning_bid_amt;\r\n        address auction_owner;\r\n    }\r\n\r\n    struct bidder{\r\n        address bid_placer;\r\n        uint bidded_value;\r\n        uint order;\r\n        uint timestamp;\r\n        bool winner;\r\n    }\r\n\r\n    mapping(uint => bidder[]) public bidders;\r\n\r\n    auction[] public auctions;\r\n\r\n     function list_new_auction(string memory title, uint days_to_deadline, uint starting_bid) public returns(uint256){\r\n        require(days_to_deadline > 0);\r\n        require(starting_bid > 0);\r\n        auctions.push(auction(title, true, false, id_counter, block.timestamp, uint256(block.timestamp + days_to_deadline *1 days), starting_bid, 0, msg.sender));\r\n        id_counter++;\r\n        emit listed_auction(id_counter-1);\r\n        return id_counter-1;\r\n    }\r\n\r\n    function view_all_auctions() public view returns(auction[] memory){\r\n        return auctions;\r\n    }\r\n\r\n    function make_bid(uint auction_id, uint orderval, uint bidded_value) public returns(bidder[] memory){\r\n        require(block.timestamp < auctions[auction_id].time_of_deadline);\r\n        require(auctions[auction_id].is_active==true);\r\n        bidder[] storage all_bidders = bidders[auction_id];\r\n        all_bidders.push(bidder(msg.sender, bidded_value, block.timestamp,orderval,false));\r\n        return bidders[auction_id];\r\n    }\r\n\r\n    function make_payment(uint auction_id) public payable returns(bool){\r\n        require(block.timestamp > auctions[auction_id].time_of_deadline);\r\n        bidder[] storage all_bidders = bidders[auction_id];\r\n        auction storage myauction = auctions[auction_id];\r\n        uint winner = all_bidders.length;\r\n        for(uint i=0;i<all_bidders.length;i++){\r\n            if(all_bidders[i].order==winner){\r\n                require(all_bidders[i].bid_placer==msg.sender);\r\n                require(msg.value==all_bidders[i].bidded_value);\r\n                require(all_bidders[i].winner == false);\r\n                myauction.winning_bid_amt=all_bidders[i].bidded_value;\r\n                myauction.amount_status = true;\r\n                all_bidders[i].winner=true;\r\n                return true;\r\n            }\r\n        }\r\n        return false;\r\n    }\r\n\r\n    function view_contract_balance() public view returns(uint256){\r\n        return address(this).balance;\r\n    }\r\n\r\n    function withdraw_from_auction(uint auction_id) public {\r\n        require(auctions[auction_id].is_active==true);\r\n        require(auctions[auction_id].auction_owner == msg.sender);\r\n        require(block.timestamp > auctions[auction_id].time_of_deadline);\r\n        require(auctions[auction_id].amount_status==true);\r\n        uint amt = auctions[auction_id].winning_bid_amt;\r\n        payable(msg.sender).transfer(amt);\r\n        auctions[auction_id].is_active=false;\r\n    }\r\n\r\n    function view_all_transactions(uint auction_id) public view returns(bidder[] memory){\r\n        return bidders[auction_id];\r\n    }\r\n}",
  "sourcePath": "C:\\Users\\m\\Desktop\\StartBid-A-Decentralized-Auctioning-Platform-main\\StartBid-A-Decentralized-Auctioning-Platform-main\\truffle-auction\\contracts\\Auction.sol",
  "compiler": {
    "name": "solc",
    "version": "0.8.19+commit.7dd6d404.Emscripten.clang"
  },
  "schemaVersion": "3.4.16",
  "updatedAt": "2026-03-02T20:53:46.658Z",
  "networkType": "ethereum",
  "devdoc": {
    "kind": "dev",
    "methods": {},
    "version": 1
  },
  "userdoc": {
    "kind": "user",
    "methods": {},
    "version": 1
  }
}